:0200000470008A
:10000000464346420004015600000000010303007D
:1000100000000000000000000000000000000000E0
:1000200000000000000000000000000000000000D0
:1000300000000000000000000000000000000000C0
:1000400000000000000408000000000000000000A4
:100050000000400000000000000000000000000060
:100060000000000000000000000000000000000090
:100070000000000000000000000000000000000080
:10008000EB04180A063204260000000000000000FD
:100090000000000000000000000000000000000060
:1000A0000000000000000000000000000000000050
:1000B0000000000000000000000000000000000040
:1000C0000000000000000000000000000000000030
:1000D0000000000000000000000000000000000020
:1000E0000000000000000000000000000000000010
:1000F0000000000000000000000000000000000000
:1001000000000000000000000000000000000000EF
:1001100000000000000000000000000000000000DF
:1001200000000000000000000000000000000000CF
:1001300000000000000000000000000000000000BF
:1001400000000000000000000000000000000000AF
:10015000000000000000000000000000000000009F
:10016000000000000000000000000000000000008F
:10017000000000000000000000000000000000007F
:10018000000000000000000000000000000000006F
:10019000000000000000000000000000000000005F
:1001A000000000000000000000000000000000004F
:1001B000000000000000000000000000000000003F
:1001C000000100000010000000000000000000001E
:1001D000000001000000000000000000000000001E
:1001E000000000000000000000000000000000000F
:1001F00000000000000000000000000000000000FF
:0200000470008A
:10100000D10020410020007000000000301000706E
:1010100020100070001000700000000000000000B0
:10102000000000700000400000000000FFFFFFFF14
:10103000D2043041CC03AC04400FC068FFFFFFFF77
:10104000400FC06CFFFFFFFF400FC070FFFFFFFFAE
:10105000400FC074FFFFFFFF400FC078FFFFFFFF8E
:10106000400FC07CFFFFFFFF400FC080FFFFFFFF6E
:10107000400D803000002001400D8100001D000067
:10108000400FC01400010D40401F801400000000FC
:10109000401F801800000000401F801C000000005E
:1010A000401F802000000000401F8024000000003E
:1010B000401F802800000000401F802C000000001E
:1010C000401F803000000000401F803400000000FE
:1010D000401F803800000000401F803C00000000DE
:1010E000401F804000000000401F804400000000BE
:1010F000401F804800000000401F804C000000009E
:10110000401F805000000000401F8054000000007D
:10111000401F805800000000401F805C000000005D
:10112000401F806000000000401F8064000000003D
:10113000401F806800000000401F806C000000001D
:10114000401F807000000000401F807400000000FD
:10115000401F807800000000401F807C00000000DD
:10116000401F808000000000401F808400000000BD
:10117000401F808800000000401F808C000000009D
:10118000401F809000000000401F8094000000007D
:10119000401F809800000000401F809C000000005D
:1011A000401F80A000000000401F80A4000000003D
:1011B000401F80A800000000401F80AC000000001D
:1011C000401F80B000000010401F80B400000000ED
:1011D000401F80B800000000401F8204000110F989
:1011E000401F8208000110F9401F820C000110F915
:1011F000401F8210000110F9401F8214000110F9F5
:10120000401F8218000110F9401F821C000110F9D4
:10121000401F8220000110F9401F8224000110F9B4
:10122000401F8228000110F9401F822C000110F994
:10123000401F8230000110F9401F8234000110F974
:10124000401F8238000110F9401F823C000110F954
:10125000401F8240000110F9401F8244000110F934
:10126000401F8248000110F9401F824C000110F914
:10127000401F8250000110F9401F8254000110F9F4
:10128000401F8258000110F9401F825C000110F9D4
:10129000401F8260000110F9401F8264000110F9B4
:1012A000401F8268000110F9401F826C000110F994
:1012B000401F8270000110F9401F8274000110F974
:1012C000401F8278000110F9401F827C000110F954
:1012D000401F8280000110F9401F8284000110F934
:1012E000401F8288000110F9401F828C000110F914
:1012F000401F8290000110F9401F8294000110F9F4
:10130000401F8298000110F9401F829C000110F9D3
:10131000401F82A0000110F9401F82A4000110F9B3
:10132000401F82A8000110F9402F000010000004A7
:10133000402F000800030524402F000C060305245D
:10134000402F00108000001B402F00148200001B63
:10135000402F00188400001B402F001C8600001B3B
:10136000402F002090000021402F0024A0000019F1
:10137000402F0028A8000017402F002CA900001BB8
:10138000402F003000000021402F0004000079A809
:10139000402F004000000F31402F004400652922FB
:1013A000402F004800010920402F004C50210A081E
:1013B000402F008000000021402F00840088888892
:1013C000402F009400000002402F00980000000011
:1013D000402F009080000000402F009CA55A000F75
:1013E000CF000C1C402F003C00000001CC00140476
:1013F000402F009080000000402F009CA55A000C58
:10140000CF000C1C402F003C00000001CC00140455
:10141000402F009080000000402F009CA55A000C37
:10142000CF000C1C402F003C00000001CC001C042D
:10143000402F00A000000033402F009080000000EB
:10144000402F009CA55A000ACF000C1C402F003CE6
:1014500000000001CC000C04402F004C50210A0970
:0200000470008A
:10200000000007201524007089780080C14B0080F3
:10201000F9760080F9140080E1F3008000000000F0
:10202000000000000000000000000000A98F0080F8
:10203000013A008000000000798A008031A0008011
:1020400073240070772400707B2400707F2400705C
:1020500083240070872400708B2400708F2400700C
:1020600093240070972400709B2400709F240070BC
:10207000A3240070A7240070AB240070AF2400706C
:10208000B324007043250070432500704325007081
:10209000B7240070BB240070BF240070C3240070FC
:1020A000C7240070CB240070CF240070D3240070AC
:1020B000D7240070DB240070DF240070E32400705C
:1020C000E7240070EB240070EF240070F32400700C
:1020D000F7240070FB240070432500704325007036
:1020E000432500704325007043250070B92D008002
:1020F0004325007043250070432500704325007080
:10210000432500704325007043250070432500706F
:10211000432500704325007043250070432500705F
:10212000FF24007003250070072500700B25007048
:102130000F25007043250070432500704325007073
:10214000432500704325007043250070432500702F
:10215000432500704325007043250070432500701F
:10216000432500704325007043250070432500700F
:1021700043250070432500704325007043250070FF
:1021800043250070432500700940008071400080A5
:10219000A140008043250070432500704325007056
:1021A000432500704325007013250070172500702B
:1021B00043250070432500704325007043250070BF
:1021C00043250070432500704325007043250070AF
:1021D000432500704325007043250070432500709F
:1021E0004325007043250070432500701B250070B7
:1021F0001F250070432500702325007027250070DF
:10220000F9F10080E1F100802B250070893C00800D
:10221000432500704325007043250070432500705E
:102220004325007043250070D17A0080432500705B
:10223000432500704325007043250070432500703E
:10224000432500704325007043250070432500702E
:10225000432500704325007043250070432500701E
:10226000432500704325007043250070432500700E
:1022700043250070432500704325007043250070FE
:1022800043250070432500704325007043250070EE
:1022900043250070432500704325007043250070DE
:1022A00033250070372500703B25007043250070F2
:1022B0003F250070432500704325007043250070C2
:1022C00043250070432500704325007043250070AE
:1022D000432500704325007043250070432500709E
:1022E000432500704325007043250070432500708E
:1022F000432500704325007043250070432500707E
:10230000432500704325007043250070432500706D
:10231000432500704325007043250070432500705D
:10232000432500704325007043250070432500704D
:10233000432500704325007043250070432500703D
:10234000432500704325007043250070432500702D
:10235000432500704325007043250070432500701D
:10236000432500704325007043250070432500700D
:1023700043250070432500704325007043250070FD
:1023800043250070432500704325007043250070ED
:1023900043250070432500704325007043250070DD
:1023A00043250070432500704325007043250070CD
:1023B00043250070432500704325007043250070BD
:1023C00043250070432500704325007043250070AD
:1023D000432500704325007043250070432500709D
:1023E000432500704325007043250070432500708D
:1023F000432500704325007043250070FFFFFFFF59
:10240000DFF80CD000F018F90048004751A4018013
:10241000000007204C484AF6AF21CAF6AA21016005
:102420004A48016841F00401016049480168C0F26E
:1024300000014FF007024FF00A034FEA02424FEA51
:10244000035342EA0301016072B642484249016007
:102450000A6882F308884148804762B640480047CE
:10246000FEE7FEE7FEE7FEE7FEE7FEE7FEE7FEE744
:10247000FEE73C4800473C4800473C4800473C4892
:1024800000473C4800473C4800473C4800473C4820
:1024900000473C4800473C4800473C4800473C4810
:1024A00000473C4800473C4800473C4800473C4800
:1024B00000473C4800473C4800473C4800473C48F0
:1024C00000473C4800473C4800473C4800473C48E0
:1024D00000473C4800473C4800473C4800473C48D0
:1024E00000473C4800473C4800473C4800473C48C0
:1024F00000473C4800473C4800473C4800473C48B0
:1025000000473C4800473C4800473C4800473C489F
:1025100000473C4800473C4800473C4800473C488F
:1025200000473C4800473C4800473C4800473C487F
:1025300000473C4800473C4800473C4800473C486F
:1025400000473C480047000044C00A4040C00A40E1
:1025500038C00A4008ED00E00020007061260070DD
:10256000012400703132008061340080B134008079
:102570000135008051350080A1350080F1350080A3
:102580004136008091360080E13600808132008043
:10259000D13200802133008071330080C13300804C
:1025A000113400804325007079670080A96700809E
:1025B000D9670080096800803968008069680080F8
:1025C00099680080C9680080314C0080414C0080CF
:1025D000594C0080714C0080495600809156008013
:1025E000D9560080215700800115008059150080C0
:1025F000A98C0080518D0080F98D0080518E008063
:10260000198F0080F93E0080013F00804325007053
:102610004325007011F2008041F20080993D008056
:1026200043250070793C008043250070B11500807F
:10263000093F008043250070064C074D06E0E06826
:1026400040F0010394E8070098471034AC42F6D3F9
:10265000FFF7DAFED028007020290070000000008B
:1026600080B588B04EF68850CEF20000016841F483
:10267000700101604FF4806002904FF000400490C0
:1026800042F20000C7F20000039002988008019017
:10269000FFE70198411E0191002808D0FFE7039849
:1026A000019950F82100049A42F82100F1E70498BA
:1026B0004EF60851CEF20001086048F20800C4F25C
:1026C0000B00018821F0010101800820C4F20D00F7
:1026D000018821F00101018048F20000C4F20B00E2
:1026E00000884007002809D5FFE748F20000C4F23F
:1026F0000B00018821F004010180FFE70020C4F2F3
:102700000D0000884007002808D5FFE70020C4F22C
:102710000D00018821F004010180FFE74CF2000068
:10272000C4F20B000068800400280AD5FFE74CF2D1
:102730000400C4F20B004CF22051CDF628110160C8
:102740000AE04CF20400C4F20B004CF2205101608C
:102750004DF628110160FFE74CF20800C4F20B00AF
:102760004FF6FF7101604CF20000C4F20B000168EB
:1027700041F0200121F0800101604EF21000CEF204
:1027800000000068C007002809D0FFE74EF21000E3
:10279000CEF20000016821F001010160FFE74EF672
:1027A0001450CEF20000006800F40030B0F5003F95
:1027B00026D0FFE74EF61450CEF2000000688003EA
:1027C000002801D5FFE71AE0BFF34F8FBFF36F8FEB
:1027D0004EF65070CEF2000000210160BFF34F8F23
:1027E000BFF36F8F4EF61450CEF20000016841F433
:1027F00000310160BFF34F8FBFF36F8FFFE7FFE73B
:102800004EF61450CEF20000006800F48030B0F5AF
:10281000803F48D0FFE74EF61450CEF2000000682B
:10282000C003002801D5FFE73CE04EF68450CEF20D
:10283000000000210160BFF34F8F4EF68050CEF2B2
:102840000000006807900798C0F34E300690FFE73D
:102850000798C0F3C9000590FFE706980599890716
:1028600060F34D114EF66070CEF2000001600598E5
:10287000411E05910028F0D1FFE70698411E069100
:102880000028E5D1FFE7BFF34F8F4EF61450CEF28C
:102890000000016841F480310160BFF34F8FBFF346
:1028A0006F8FFFE7FFE700F003F808B080BD00007E
:1028B000704702E008C8121F08C1002AFAD1704709
:1028C0007047002001E001C1121F002AFBD17047B0
:1028D000202900700004008008EC0100B22800707C
:1028E000001802700000002000080000B2280070EC
:1028F000002002700000000088210000B228007053
:102900000020027000080020986A0000C2280070B1
:102910008841027000002020002C0100C2280070B5
:102920002DE9F05F0546002092469B468846064604
:10293000814640241BE0284641464746224600F097
:10294000C6F853465A46C01A914110D3114618464C
:10295000224600F0ADF82D1A67EB01084F462246DB
:102960000120002100F0A4F817EB00094E41201EC1
:10297000A4F10104DFDC484631462A464346BDE85F
:10298000F09F2DE9F0410024061B254671F1000659
:1029900005DA01240027D0EB070067EB0101161EC2
:1029A00073F1000605DA0027D2EB0702012567EB79
:1029B0000303FFF7B5FF86460E4617469C46AC421A
:1029C00004D00025D0EB050E65EB010624B10020F4
:1029D000D2EB000760EB030C704631463A46634683
:1029E000BDE8F08110B540EA01040346A40703D016
:1029F00009E010C9121F10C3042AFAD203E011F82B
:102A0000014B03F8014B521EF9D210BDD2B201E0C6
:102A100000F8012B491EFBD270470022F6E710B5E3
:102A200013460A4604461946FFF7F0FF204610BD3C
:102A3000421C10F8011B0029FBD1801A70473EB5DB
:102A4000CA17CB0F002450405140C0186141DA072B
:102A500040F233430094CDE901232246234600F09F
:102A600055F803B030BD70B5C1F30A5201F000450E
:102A70000024C1F3130140F2FF3341F480119A4264
:102A800002DA0020014670BD40F233439A42A2F2BE
:102A9000334203DC524200F01AF801E000F008F87B
:102AA0002C43F0D00023D0EB030063EB010170BD99
:102AB000202A04DB203A00FA02F1002070479140FE
:102AC000C2F1200320FA03F3194390407047202AF3
:102AD00004DB203A21FA02F00021704721FA02F3C8
:102AE000D040C2F12002914008431946704710B50A
:102AF000141E73F1000408DA401C41F10001921821
:102B00005B411A4301D120F0010010BD2DE9F04DC9
:102B100092469B4611B1B1FA81F202E0B0FA80F21E
:102B200020329046FFF7C4FF04460F4640EA0A00F1
:102B300041EA0B0153465A46084313D0114653EA63
:102B4000010019D0C8F140025046FFF7C0FF05460A
:102B50000E46504659464246FFF7AAFF084305D0A5
:102B6000012004E020463946BDE8F08D00200543F1
:102B700046EAE0762C4337430A986305E40AA0EB63
:102B800008000022FD0A44EA47540A3002D500201A
:102B90000146E9E7010510196941DDE90845001919
:102BA0006941BDE8F04DA2E770B521F00043034351
:102BB0000CD0C1F30A550024D5EB040564EB0403E3
:102BC000D617AD1AB34102DB0020014670BD2018B4
:102BD00041EB025170BD70B58C1810F8015B15F017
:102BE000070301D110F8013B2A1106D110F8012B7F
:102BF00003E010F8016B01F8016B5B1EF9D12B07A4
:102C000005D40023521E0DD401F8013BFAE710F859
:102C1000013BCB1A921C03E013F8015B01F8015B46
:102C2000521EF9D5A142D8D3002070BD000000008B
:102C300080B584B00390002002908DF807000398BF
:102C4000406C8004002808D5FFE701208DF80700BC
:102C50000398002100F044F8FFE703980221C164C3
:102C60000398816C41F080018164FFE70398806CD8
:102C7000000600280BD5FFE7039800F02DF9800728
:102C8000002803D5FFE70120029000E0EEE703985B
:102C9000002100F079F8002803D1FFE7012002901D
:102CA000FFE7039800F018F98007002803D5FFE735
:102CB00001200290FFE70398002100F02DF89DF815
:102CC0000710C907002905D0FFE70398012100F08C
:102CD00007F8FFE7029804B080BD00000000000084
:102CE00082B00A4601908DF803109DF80300C007DA
:102CF000002806D0FFE70198416C41F4005141647F
:102D000005E00198416C21F400514164FFE702B0F5
:102D1000704700000000000082B001900091009810
:102D2000072801D8FFE70BE04DF69470C8F20100C8
:102D30004EF20A01C8F201014FF48B720EF058FFF7
:102D40000098019901EB8000406A02B070470000D2
:102D500082B0019000910098072801D8FFE70BE0AE
:102D60004DF69470C8F201004EF25871C8F201019C
:102D70004FF48B720EF03CFF0098019901EB80003C
:102D8000406A02B07047000082B001900091009844
:102D9000072801D8FFE70BE04DF69470C8F2010058
:102DA0004EF20A01C8F201014FF497720EF020FFB3
:102DB0000198006A009901228A401040C84002B080
:102DC000704700000000000082B001900091009860
:102DD000072801D8FFE70BE04DF69470C8F2010018
:102DE0004EF25871C8F201014FF497720EF000FFD5
:102DF0000198006A009901228A401040C84002B040
:102E0000704700000000000080B582B0019001987A
:102E1000002801D0FFE70AE04DF6FB70C8F2010080
:102E20004DF6CC71C8F2010190220EF0E1FE01983E
:102E300000210B220091FFF7F2FD019901224A7156
:102E40000199009A0A7001994A7001998A70019952
:102E5000CA7001990A7101998A710199CA7101991F
:102E600003230B7201994A72019902238B7202B0FB
:102E700080BD00000000000082B0019000200090A2
:102E8000FFE70098022811D8FFE700984DF6FC31C3
:102E9000C8F2010151F820000199884201D1FFE7F1
:102EA00004E0FFE7009801300090EAE7009802286C
:102EB00001D8FFE70AE04DF67270C8F201004DF646
:102EC000CC71C8F2010135220EF092FE009802B0DA
:102ED000704700000000000081B000900098C06CB6
:102EE00001B070470000000080B584B003900291EB
:102EF0000298002801D0FFE70AE04DF6FB70C8F207
:102F000001004DF6CC71C8F2010142220EF070FEB4
:102F10000398FFF7B1FF4DF60841C8F2010131F9FE
:102F2000100001F0E9F80398406C00F46040019053
:102F300002988179C279037A90F809C04FF4407EF3
:102F40000EEA022261F3CC2203F0030111440CF0DB
:102F5000030241EA4211807A00F0030041EA800056
:102F600001990843019002980078C007002805D015
:102F7000FFE7019840F480300190FFE70298007964
:102F8000C007002805D0FFE7019840F0100001902D
:102F9000FFE70298C078C007002805D0FFE7019836
:102FA00040F080000190FFE702988078C007002879
:102FB00005D0FFE7019840F480600190FFE7019899
:102FC000039948640398806C20F0410001900298B6
:102FD0004078C007002805D0FFE7019840F0400086
:102FE0000190FFE702984079C007002805D0FFE76D
:102FF000019840F001000190FFE70198039988646F
:1030000004B080BD0000000084B0039002910192E2
:103010000198002801D0FFE70AE04DF6FB70C8F2E6
:1030200001004DF6CC71C8F20101BF220EF0E0FDA7
:103030000298072801D8FFE70AE04DF69470C8F21D
:1030400001004DF6CC71C8F20101C0220EF0D0FD96
:103050000198006800F01F00009001980079C007F7
:10306000002805D0FFE7009840F080000090FFE7BF
:1030700000980399029A41F8220004B070470000BA
:1030800080B582B0012003210222019000920EF04F
:10309000FFFD04210198009A0EF0FAFD0521019828
:1030A000009A0EF0F5FD06210198009A0EF0F0FD51
:1030B0000A210198009A0EF0EBFD02B080BD0000DD
:1030C00082B001468DF803009DF80300052805DB5A
:1030D000FFE70020CBF68070019009E09DF8030027
:1030E00040F60001C2F2000151F820000190FFE714
:1030F0009DED010A02B07047BFF35F8F4EF624507A
:10310000CEF20000016821F4803101604EF6945047
:10311000CEF20000016821F001010160704700005B
:1031200081B00090009840F001004EF69451CEF22C
:10313000000108604EF62450CEF20000016841F410
:1031400080310160BFF34F8FBFF36F8F01B07047C5
:1031500080B58AB04FF4004002F072F848F2C02007
:10316000C4F20D00016841F480310160016821F46E
:103170000031016043F20060C0F26E1002F06CF8A2
:10318000002001F0E5FD01F027FE0120099002F08A
:103190006FF84CF20000C4F20F0001687F2262F366
:1031A0000701016046F61840C8F20000099901F0D5
:1031B0004BFF43F61410C1F20040099901F044FF9F
:1031C0000C20C4F208000168132262F304010160BC
:1031D000FFE70020C4F20800006800F00040B0F1F2
:1031E000004F01D0FFE7F4E74DF62C30C8F20100A4
:1031F00001F07AFD00F000FF48F20000C4F20D007B
:103200000D21C0F2700101220890079201F0F4FF35
:1032100048F27010C4F20D00016821F40041016011
:10322000016821F40001016048F27001C4F20D014F
:103230000A6842F400520A60069000F0F5FE48F277
:10324000A000C4F20D00016841F4803101600699CC
:103250000A6822F040420A60026842F400520260AA
:1032600000F0D2FE0D21C0F2E0010898079A01F0AB
:10327000C3FF48F2E000C4F20D000168079A62F350
:1032800001010160016841F400510160016821F011
:103290000C010160016841F480110160016841F492
:1032A0000011016000F0B8FE0D21C0F22001089865
:1032B000079A01F0A1FF48F22000C4F20D00016856
:1032C00041F4005101604EF61420C0F2004000218C
:1032D000059101F0E1FD4FF4887000F0ADFE4FF470
:1032E000847000F0A9FE40F2162000F0A5FE4FF415
:1032F000067000F0A1FE46F61400C8F2000003219B
:10330000049101F0C9FD4EF21000C4F200000799CB
:1033100001F0C2FD47F21820C8F20000049901F044
:1033200093FE43F61410C1F20040059901F08CFEA3
:103330004FF61430C8F20000059901F0ADFD46F6D5
:103340001840C8F20000059901F07EFE4FF48A7023
:1033500000F072FE4FF48B7000F06EFE182000F04B
:103360006BFE1A2000F068FE4FF4867000F064FED9
:103370004EF21C00C8F20700079901F08DFD42F2E1
:103380001C60C8F20000059901F05EFE40F2026088
:1033900000F052FE4EF62430C8F20000079901F00A
:1033A0007BFD43F21C00C8F20000059901F04CFEC1
:1033B00040F2046000F040FE4FF22400C8F200002A
:1033C000079901F069FD43F21C10C8F2000005994D
:1033D00001F03AFE40F20A6000F02EFE4FF21C703F
:1033E000C8F20000059901F057FD47F61C50C8F2DD
:1033F0000000049901F028FE40F2022000F01CFEBB
:103400004EF63C30C8F20000079901F045FD46F643
:103410003C10C8F20000059901F016FE4FF48070D0
:1034200000F00AFE4FF4817000F006FE4FF4827047
:1034300000F002FE4FF4837000F0FEFD4FF61820FE
:10344000C8F20000042101F027FD46F21840C8F23E
:1034500000000221039101F0F7FD162000F0ECFDC1
:1034600047F62410C8F20000039901F015FD46F656
:103470001860C8F20000039901F0E6FD40F2125016
:1034800000F0DAFD4EF22860C8F20000049901F065
:1034900003FD4EF22800C8F20700079901F0FCFC7A
:1034A00046F61C20C8F20000059901F0CDFD40F25F
:1034B000145000F0C1FD4EF22C60C8F200000499D7
:1034C00001F0EAFC4EF22C00C8F20700079901F067
:1034D000E3FC46F61C40C8F20000059901F0B4FD7B
:1034E00040F2165000F0A8FD4FF22860C8F200002C
:1034F000049901F0D1FC4FF22800C8F207000799A7
:1035000001F0CAFC46F61C60C8F20000059901F003
:103510009BFD40F2062000F08FFD4FF4027000F09A
:103520008BFD40F20A2000F087FD4FF23830C8F2E0
:103530000700059901F0B0FC43F23820C8F2000002
:10354000059901F081FD0E2000F076FD1220029019
:1035500000F072FD40F2067000F06EFD102000F0E9
:103560006BFD142000F068FD4FF4E16000F064FD95
:103570004EF22020C8F20700079901F08DFC46F6B4
:103580002000C8F20000039901F05EFD4FF4A36033
:1035900000F052FD1C2000F04FFD0C2000F04CFD0F
:1035A0004FF48C7000F048FD40F2023000F044FD12
:1035B00040F2063000F040FD40F21A5000F03CFDB1
:1035C00040F20E6000F038FD4EF22400C8F2070011
:1035D000059901F061FC42F22460C8F200000599EF
:1035E00001F032FD40F20A3000F026FD4EF6384080
:1035F000C8F20000079901F04FFC4FF21870C8F2B2
:103600000000049901F048FC4EF63870C8F2000042
:10361000052101F019FD40F20E5000F00DFD4FF6AE
:103620003010C8F20000079901F036FC4FF230600C
:10363000C8F200000721019101F02EFC47F2304052
:10364000C8F20000049901F0FFFC40F2025000F0C3
:10365000F3FC4EF63040C8F20000079901F01CFC64
:103660004EF63010C8F20000019901F015FC46F248
:103670003070C8F20000049901F0E6FC4FF440708D
:1036800000F0DAFC4EF62810C8F20000079901F0AD
:1036900003FC4FF62810C8F20000079901F0FCFB6C
:1036A00047F22030C8F20000049901F0CDFC42F24C
:1036B0000C00C8F20000059901F0C6FC48F2601049
:1036C000C4F20D00016821F01F0101604CF260009E
:1036D000C4F20F00016821F0700101600168079ACF
:1036E00062F303010160016821F460010160016877
:1036F000029B63F314410160016821F48071016051
:10370000016821F080010160016821F08071016091
:1037100040F2D010C2F2000044F20061C2F2C331A4
:1037200001600AB080BD000080B586B04EF614502E
:10373000CEF2000000688003002817D5FFE7BFF332
:103740004F8FBFF36F8F4EF61450CEF2000001681A
:1037500021F4003101604EF65070CEF200000021DD
:103760000160BFF34F8FBFF36F8FFFE74EF614502A
:10377000CEF200000068C00300283DD5FFE74EF6FA
:103780008450CEF2000000210160BFF34F8F4EF64F
:103790001450CEF20000016821F480310160BFF3C3
:1037A0004F8F4EF68050CEF20000006805900598CD
:1037B000C0F34E300490FFE70598C0F3C9000390B2
:1037C000FFE704980399890760F34D114EF6747072
:1037D000CEF2000001600398411E03910028F0D151
:1037E000FFE70498411E04910028E5D1FFE7BFF3ED
:1037F0004F8FBFF36F8FFFE7FFF77EFC4EF69C50B5
:10380000CEF200001021CCF2000101604EF6A05172
:10381000CEF200013922C0F210320A601122C8F241
:10382000000202603B22C0F210320A601223C7F28B
:10383000000303602B23C0F203630B6013230360B8
:103840000A60142202601F22C0F203320A601522AD
:10385000C2F2000202602522C0F203320A6016237F
:10386000C2F2200303600A601722C2F2280202603B
:103870000922C0F203320A601822C8F20002026074
:103880003122C0F203320A601922C8F2E01202604B
:103890002920C0F2083008600420FFF741FC4EF6F2
:1038A0001450CEF200000068C003002801D5FFE7E5
:1038B0003CE04EF68450CEF2000000210160BFF3E0
:1038C0004F8F4EF68050CEF20000006802900298B2
:1038D000C0F34E300190FFE70298C0F3C90000909A
:1038E000FFE701980099890760F34D114EF660706B
:1038F000CEF2000001600098411E00910028F0D136
:10390000FFE70198411E01910028E5D1FFE7BFF3D1
:103910004F8F4EF61450CEF20000016841F4803112
:103920000160BFF34F8FBFF36F8FFFE74EF6145068
:10393000CEF2000000688003002801D5FFE71AE0FE
:10394000BFF34F8FBFF36F8F4EF65070CEF2000073
:1039500000210160BFF34F8FBFF36F8F4EF61450FD
:10396000CEF20000016841F400310160BFF34F8FD7
:10397000BFF36F8FFFE706B080BD000000000000BE
:1039800080B584B042F22460C8F2000000F094FDDB
:1039900000281BD1FFE70D20C0F2100000F0A8FEA8
:1039A0004AF6AB21CAF6AA21A0FB010189084EF212
:1039B0002402C8F2070202901046019100F0B8FC00
:1039C00001300199B1FBF0F003900FE000F088FDA9
:1039D0004EF22401C8F207010090084600F0A8FC4E
:1039E00001300099B1FBF0F00390FFE7039804B0B9
:1039F00080BD00000000000080B582B0FFF7C0FF6E
:103A00000190019B03204FF4E131012202F020F9E3
:103A100002B080BD00000000FFE7FEE700000000EC
:103A200080B582B047F29410C2F2000040680028CE
:103A300001D0FFE70BE04EF24510C8F201004EF254
:103A40009611C8F2010140F649520EF0D1F847F242
:103A50009410C2F20000416840F25030C2F20000FF
:103A600000680022C4F21D0201901046019A90479E
:103A700002B080BD0000000080B582B047F2941013
:103A8000C2F200008068002801D0FFE70BE04EF290
:103A90006010C8F201004EF29611C8F2010140F622
:103AA00057520EF0A5F847F29410C2F20000816858
:103AB00040F25030C2F20000006844F20002C4F24A
:103AC0001D0201901046019A904702B080BD00008F
:103AD00080B582B047F29410C2F20000C06800289E
:103AE00001D0FFE70BE04EF27B10C8F201004EF26E
:103AF0009611C8F2010140F665520EF079F847F2CE
:103B00009410C2F20000C16840F25030C2F20000CE
:103B1000006848F20002C4F21D0201901046019AAA
:103B2000904702B080BD000084B00A460346ADF85D
:103B30000E008DF80D10BDF90E00000A0290BDF8C0
:103B40000E0000F01F0001900298072801D8FFE73F
:103B50000BE04DF64450C8F201004DF66F51C8F22B
:103B6000010140F22D420EF043F802984CF2680138
:103B7000C4F20F0101EB80000090009800680199E9
:103B800003228A4090439DF80D2002FA01F1084378
:103B90000099086004B0704784B00A460346ADF847
:103BA0000E008DF80D10BDF90E00000A0290BDF850
:103BB0000E0000F01F0001900298072801D8FFE7CF
:103BC0000BE04DF64450C8F201004DF66F51C8F2BB
:103BD000010140F22D420EF00BF802984CF2680100
:103BE000C4F20F0101EB8000009000980068019979
:103BF00003228A4090439DF80D2002FA01F1084308
:103C00000099086004B0704784B00A460346ADF8D6
:103C10000E008DF80D10BDF90E00000A0290BDF8DF
:103C20000E0000F01F0001900298072801D8FFE75E
:103C30000BE04DF64450C8F201004DF66F51C8F24A
:103C4000010140F22D420DF0D3FF02984CF26801C1
:103C5000C4F20F0101EB8000009000980068019908
:103C600003228A4090439DF80D2002FA01F1084397
:103C70000099086004B0704784B00A460346ADF866
:103C80000E008DF80D10BDF90E00000A0290BDF86F
:103C90000E0000F01F0001900298072801D8FFE7EE
:103CA0000BE04DF64450C8F201004DF66F51C8F2DA
:103CB000010140F22D420DF09BFF02984CF2680189
:103CC000C4F20F0101EB8000009000980068019998
:103CD00003228A4090439DF80D2002FA01F1084327
:103CE0000099086004B0704784B00A460346ADF8F6
:103CF0000E008DF80D10BDF90E00000A0290BDF8FF
:103D00000E0000F01F0001900298072801D8FFE77D
:103D10000BE04DF64450C8F201004DF66F51C8F269
:103D2000010140F22D420DF063FF02984CF2680150
:103D3000C4F20F0101EB8000009000980068019927
:103D400003228A4090439DF80D2002FA01F10843B6
:103D50000099086004B0704784B00A460346ADF885
:103D60000E008DF80D10BDF90E00000A0290BDF88E
:103D70000E0000F01F0001900298072801D8FFE70D
:103D80000BE04DF64450C8F201004DF66F51C8F2F9
:103D9000010140F22D420DF02BFF02984CF2680118
:103DA000C4F20F0101EB80000090009800680199B7
:103DB00003228A4090439DF80D2002FA01F1084346
:103DC0000099086004B0704784B00A460346ADF815
:103DD0000E008DF80D10BDF90E00000A0290BDF81E
:103DE0000E0000F01F0001900298072801D8FFE79D
:103DF0000BE04DF64450C8F201004DF66F51C8F289
:103E0000010140F22D420DF0F3FE02984CF26801E0
:103E1000C4F20F0101EB8000009000980068019946
:103E200003228A4090439DF80D2002FA01F10843D5
:103E30000099086004B0704784B00A460346ADF8A4
:103E40000E008DF80D10BDF90E00000A0290BDF8AD
:103E50000E0000F01F0001900298072801D8FFE72C
:103E60000BE04DF64450C8F201004DF66F51C8F218
:103E7000010140F22D420DF0BBFE02984CF26801A8
:103E8000C4F20F0101EB80000090009800680199D6
:103E900003228A4090439DF80D2002FA01F1084365
:103EA0000099086004B0704784B00A460346ADF834
:103EB0000E008DF80D10BDF90E00000A0290BDF83D
:103EC0000E0000F01F0001900298072801D8FFE7BC
:103ED0000BE04DF64450C8F201004DF66F51C8F2A8
:103EE000010140F22D420DF083FE02984CF2680170
:103EF000C4F20F0101EB8000009000980068019966
:103F000003228A4090439DF80D2002FA01F10843F4
:103F10000099086004B0704784B00A460346ADF8C3
:103F20000E008DF80D10BDF90E00000A0290BDF8CC
:103F30000E0000F01F0001900298072801D8FFE74B
:103F40000BE04DF64450C8F201004DF66F51C8F237
:103F5000010140F22D420DF04BFE02984CF2680137
:103F6000C4F20F0101EB80000090009800680199F5
:103F700003228A4090439DF80D2002FA01F1084384
:103F80000099086004B0704784B00A460346ADF853
:103F90000E008DF80D10BDF90E00000A0290BDF85C
:103FA0000E0000F01F0001900298072801D8FFE7DB
:103FB0000BE04DF64450C8F201004DF66F51C8F2C7
:103FC000010140F22D420DF013FE02984CF26801FF
:103FD000C4F20F0101EB8000009000980068019985
:103FE00003228A4090439DF80D2002FA01F1084314
:103FF0000099086004B0704748F27000C4F20D00E8
:104000004FF480510160704748F2E000C4F20D00A7
:104010004FF480510160704748F22000C4F20D0057
:10402000002101607047000048F2A000C4F20D00BA
:104030004FF480510160704780B582B00146ADF801
:104040000600BDF90600002200911146FFF76CFD45
:1040500002B080BD0000000080B582B00146ADF81E
:104060000600BDF90600002200911146FFF704FE8C
:1040700002B080BD0000000080B582B00146ADF8FE
:104080000600BDF90600002200911146FFF79CFED4
:1040900002B080BD0000000080B582B00146ADF8DE
:1040A0000600BDF90600002200911146FFF7C4FE8C
:1040B00002B080BD0000000080B582B00146ADF8BE
:1040C0000600BDF90600002200911146FFF7ECFE44
:1040D00002B080BD0000000080B582B00146ADF89E
:1040E0000600BDF90600002200911146FFF714FFFB
:1040F00002B080BD0000000080B582B00146ADF87E
:104100000600BDF90600032200911146FFF744FDA9
:1041100002B080BD0000000080B582B00146ADF85D
:104120000600BDF90600032200911146FFF76CFD61
:1041300002B080BD0000000080B582B00146ADF83D
:104140000600BDF90600032200911146FFF794FD19
:1041500002B080BD0000000080B582B00146ADF81D
:104160000600BDF90600032200911146FFF7BCFDD1
:1041700002B080BD0000000080B582B00146ADF8FD
:104180000600BDF90600032200911146FFF7E4FD89
:1041900002B080BD0000000080B582B00146ADF8DD
:1041A0000600BDF90600032200911146FFF70CFE40
:1041B00002B080BD0000000080B582B00146ADF8BD
:1041C0000600BDF90600032200911146FFF734FEF8
:1041D00002B080BD0000000080B582B00146ADF89D
:1041E0000600BDF90600032200911146FFF75CFEB0
:1041F00002B080BD0000000080B582B00146ADF87D
:104200000600BDF90600032200911146FFF784FE67
:1042100002B080BD0000000080B582B00146ADF85C
:104220000600BDF90600032200911146FFF7ACFE1F
:1042300002B080BD0000000083B002468DF80B0084
:1042400001914CF28000C4F20F00016841F00301BB
:10425000016040F24010C4F22E00016841F00201FA
:10426000016000200090FFE7009841F67F21C0F236
:104270000601884206D8FFE700BFFFE7009801303B
:104280000090F1E748F22010C4F20D00016841F2FD
:104290000172114321F400610160012003B07047F5
:1042A00080B584B002468DF80F0002910020ADF871
:1042B000040048F21000C4F20D00006880040028D9
:1042C00009D5FFE748F21000C4F20D00016841F083
:1042D0004001016003E001A800F08AFDFFE749F218
:1042E0003000C4F20D00016821F000410160016856
:1042F00021F08041016049F20001C4F20D01002269
:104300000A60016841F4C6110160012004B080BD5B
:1043100080B500F041F94CF21401C4F20F010968B4
:1043200001F4E051012202EB9121B0FBF1F080BDDC
:1043300081B00090009840F6C071C0F2400161F376
:104340001F2000680099C1F34C32C1F304218A4058
:104350001040C84001B0704780B584B001468DF868
:104360000F009DF80F0002461728019200F28C8082
:104370000199DFE801F00C0C1014181C20242930DE
:10438000353A3F444B52575C61666D747B82FFF750
:10439000BFFF02907BE000F0CBFB029077E000F0E3
:1043A0007BF8029073E000F0D3F802906FE000F029
:1043B000B3F802906BE000F0B7FB029067E00D20CD
:1043C00000F096F9029062E00D20C0F2100000F0BB
:1043D0008FF902905BE0002000F032FC029056E082
:1043E000012000F02DFC029051E0022000F028FC9A
:1043F00002904CE0032000F023FC029047E00D20E7
:10440000C0F2200000F074F9029040E00D20C0F2EC
:10441000300000F06DF9029039E0002000F0BCFBA4
:10442000029034E0012000F0B7FB02902FE0022060
:1044300000F0B2FB02902AE0032000F0ADFB0290F6
:1044400025E00D20C0F2E00000F052F902901EE0DD
:104450001420C0F2E00000F04BF9029017E01520A4
:10446000C0F2E00000F044F9029010E00D20C0F22C
:10447000700000F03DF9029009E00D20C0F2A000AC
:1044800000F036F9029002E000200290FFE7029867
:1044900004B080BD0000000080B5FFF739FF4CF28A
:1044A0001401C4F20F01096801F44071012202EB0A
:1044B0001121B0FBF1F080BD81B00090009840F672
:1044C000C071C0F2400161F31F2000680099C1F380
:1044D0004C32C1F304218A401040C84001B07047FB
:1044E00081B048F27020C4F20D000068C0060028B8
:1044F00006D5FFE743F20060C0F26E10009006E0C0
:1045000046F2AC20C2F2000000680090FFE700987D
:1045100001B070470000000081B048F27020C4F282
:104520000D000068C006002806D5FFE743F20060D2
:10453000C0F26E10009006E046F2AC20C2F200001D
:1045400000680090FFE7009801B07047000000008D
:1045500080B582B04CF21C00C4F20F000068400627
:10456000002804D5FFE7FFF7D7FF019003E0FFF72E
:1045700093FF0190FFE74CF21C00C4F20F000068AB
:1045800000F03F0001300199B1FBF0F0019001987B
:1045900002B080BD0000000080B584B04CF2140071
:1045A000C4F20F0000688001002840D5FFE74CF2FC
:1045B0001800C4F20F00006800F4405001460028C3
:1045C00002910FD0FFE70298B0F5805F11D0FFE7AE
:1045D0000298B0F5005F10D0FFE70298B0F5405F99
:1045E00012D012E00D20C0F2100000F081F803900C
:1045F0000EE0FFF791FF03900AE00D20C0F23000BB
:1046000000F076F8039003E0FFE700200390FFE757
:104610004CF21400C4F20F00006800F06050012159
:1046200001EBD0600399B1FBF0F003903EE04CF257
:104630001800C4F20F00006800F440200146002872
:1046400001910FD0FFE70198B0F5802F11D0FFE75F
:104650000198B0F5002F11D0FFE70198B0F5402F79
:1046600011D01FE00D20C0F2300000F041F803909F
:104670001BE0022000F090FA039016E0002000F00A
:104680008BFA039011E00D2000F032F84CF210018B
:10469000C4F20F01096801F007010131B0FBF1F02C
:1046A000039002E000200390FFE7FFE7039804B0C7
:1046B00080BD00000000000080B584B0039002912E
:1046C0000398BDF80A106FF31F31405880B20021E3
:1046D000B1EB903F04D1FFE7FFF71EFF019002E02E
:1046E00000200190FFE7019804B080BD00000000A9
:1046F00080B590B00E904DF63430C8F201000168DC
:1047000042688368C06809900893079206910E99E1
:1047100048F20000C4F20D0000F0AAFB002803D10B
:10472000FFE700200F90FAE10E9948F20000C4F272
:104730000D000590FFF7C0FF0D900E99059800F051
:1047400087FB002803D0FFE70D980F90E7E10E9854
:104750000D2804903DD0FFE70D20C0F21000049911
:1047600081427ED0FFE70D20C0F2200004998142F3
:1047700000F0C081FFE70D20C0F2300004998142B3
:1047800033D0FFE70D20C0F270000499814277D04A
:10479000FFE70D20C0F2A0000499814200F0FF80E5
:1047A000FFE70D20C0F2E0000499814200F0808113
:1047B000FFE71420C0F2E0000499814200F08681F6
:1047C000FFE71520C0F2E0000499814200F08C81DF
:1047D0009FE10D9848F20001C4F20D01096801F053
:1047E0007F01484340080D9096E19DED0D0AB8EE1B
:1047F000401B48F25000C4F20D0090ED000AB8EEE4
:10480000402B21EE021B8DED0A1B48F26000C4F222
:104810000D0090ED000AB8EE401B9DED0A2B82EED4
:10482000011B8DED0A1B48F23000C4F20D00006838
:10483000C007002805D0FFE70D98162148430D90CA
:1048400005E00D9800EB800080000D90FFE79DEDE6
:104850000A0BBCEEC01B11EE100A0D9908440D9016
:104860005AE10D9848F21001C4F20D010968890758
:104870001422002948BF162202FB00F00D904BE1E4
:1048800048F27000C4F20D00016801F07F010C9144
:104890009DED0D0AB8EE401B48F28001C4F20D01F7
:1048A00091ED000AB8EE402B21EE021B8DED0A1BA4
:1048B00048F29001C4F20D0191ED000AB8EE401BE0
:1048C0009DED0A2B82EE011B8DED0A1B0D990C9AB2
:1048D0009DED0A1BBCEEC10B10EE103A01FB02313C
:1048E0000D91006800F4C0100146002803910AD021
:1048F000FFE70398B0F5002F09D0FFE70398B0F564
:10490000801F08D008E00D9880080D9010E00D98E9
:1049100040080D900CE00BE04EF27900C8F2010067
:104920004EF23901C8F2010140F2C5320DF060F9D2
:1049300048F27010C4F20D00006848F20001C0F2A5
:10494000800108400146002802911AD0FFE7029832
:10495000B0F5004F11D0FFE70298B0F5000F10D06E
:10496000FFE748F20000C0F280000299814209D1BD
:10497000FFE70D9880080D9010E00D9840080D900D
:104980000CE00BE04EF27900C8F201004EF2390162
:10499000C8F2010140F2D9320DF02AF9BCE048F228
:1049A000A000C4F20D00016801F07F010C919DEDA3
:1049B0000D0AB8EE401B48F2B001C4F20D0191EDB2
:1049C000000AB8EE402B21EE021B8DED0A1B48F2C7
:1049D000C001C4F20D0191ED000AB8EE401B9DED3F
:1049E0000A2B82EE011B8DED0A1B0D990C9A9DED91
:1049F0000A1BBCEEC10B10EE103A01FB02310D9107
:104A0000006800F4C0100146002801910AD0FFE7B9
:104A10000198B0F5002F09D0FFE70198B0F5801F8D
:104A200008D008E00D9880080D9010E00D9840081F
:104A30000D900CE00BE04EF27900C8F201004EF24E
:104A40003901C8F2010140F206420DF0D1F848F2F6
:104A50007010C4F20D00006800F040400146B0F153
:104A6000004F009116D0FFE70098B0F1404F09D0F9
:104A7000FFE7009800280DD0FFE70098B0F1804FC5
:104A800004D008E00D9880080D9010E00D984008C3
:104A90000D900CE00BE04EF27900C8F201004EF2EE
:104AA0003901C8F2010140F21A420DF0A1F833E0D9
:104AB00048F2E000C4F20D00006800F003000C9022
:104AC0000C9806A951F820000D9025E048F2E0006E
:104AD000C4F20D000068C0F381000C900C9806A988
:104AE00051F820000D9017E047F64000C0F27D100D
:104AF0000D9011E00D9848F22001C4F20D010968F3
:104B000089071422002948BF162202FB00F00D90ED
:104B100002E000200D90FFE70D980F90FFE70F983F
:104B200010B080BD000000004FF40040704700004E
:104B300080B582B04CF21400C4F20F000068400649
:104B4000002814D5FFE74CF21400C4F20F000068EF
:104B50000006002805D5FFE7012000F071F801905C
:104B600004E0022000F018F80190FFE703E0FFF7EF
:104B700013FD0190FFE74CF21400C4F20F0000682F
:104B800000F4E020012101EB10400199B1FBF0F0AD
:104B90000190019802B080BD80B584B001468DF8C7
:104BA0000F000D20C0F230000191FFF7A1FD02902F
:104BB0009DF80F0001460328009134D80099DFE8E2
:104BC00001F0020E1A2648F20010C4F20D0000682F
:104BD00000F03F000299B1FBF0F0029026E048F2AD
:104BE0000010C4F20D000068C0F305200299B1FB6B
:104BF000F0F002901AE048F20010C4F20D000068D4
:104C0000C0F305400299B1FBF0F002900EE048F2CB
:104C10000010C4F20D000068C0F305600299B1FBFA
:104C2000F0F0029002E000200290FFE7029800EB13
:104C3000C00040000290029804B080BD0000000057
:104C400080B584B001468DF80F000D20C0F2100031
:104C50000191FFF74DFD02909DF80F0001460328DA
:104C6000009134D80099DFE801F0020E1A2648F2CC
:104C7000F000C4F20D00006800F03F000299B1FBA3
:104C8000F0F0029026E048F2F000C4F20D00006857
:104C9000C0F305200299B1FBF0F002901AE048F24F
:104CA000F000C4F20D000068C0F305400299B1FBAA
:104CB000F0F002900EE048F2F000C4F20D0000683F
:104CC000C0F305600299B1FBF0F0029002E0002011
:104CD0000290FFE7029800EBC000400002900298AB
:104CE00004B080BD0000000081B0009048F20000D8
:104CF000C4F20D00016821F4E031009A12799203A8
:104D000092B2114401F580310160016843F27F02E3
:104D10009143009A126802F07F02114401F500519C
:104D20000160FFE748F20000C4F20D000068C00F08
:104D3000002801D1FFE7F5E748F20000C4F20D00BA
:104D4000016821F48031016001B07047000000006B
:104D500082B001468DF807009DF80700C0070028C3
:104D600001D1FFE70AE04EF26A00C8F201004EF2FC
:104D70003901C8F20101A2220CF03AFF48F25810A2
:104D8000C4F20D004FF080410160FFE748F270204F
:104D9000C4F20D000068C003002801D4FFE7F5E766
:104DA00048F25410C4F20D004FF480310160FFE767
:104DB00048F25010C4F20D0000680004002801D42D
:104DC000FFE7F5E748F25810C4F20D004FF48031C8
:104DD000016002B07047000048F27020C4F20D007C
:104DE000016841F00101016070470000000000000F
:104DF00081B0009048F21000C4F20D00016821F467
:104E0000E031009A5278920392B2114401F5803158
:104E100001600168009A1278C2F31E0262F3410138
:104E200041F441510160FFE748F21000C4F20D0067
:104E30000068C00F002801D1FFE7F5E748F2100035
:104E4000C4F20D00016821F48031016001B07047A7
:104E500082B0019000910198BDF802106FF31F31EC
:104E60004058C0F3004002B070470000000000004E
:104E700082B0019000910198BDF802106FF31F31CC
:104E80004058009901F01F01C84000F0010002B035
:104E9000704700000000000080B584B003900291CC
:104EA0000398800E0190039840F6C071C0F2400153
:104EB00061F31F200068039AC2F34C33C2F3042C41
:104EC00003FA0CF39843DDF808E00EFA0CFC03EA51
:104ED0000C03184361F31F2210600198202801D8A9
:104EE000FFE70BE04DF65150C8F201004DF66F514F
:104EF000C8F2010140F20B420CF07AFE0198202822
:104F00000ED0FFE7FFE74CF24800C4F20F00006844
:104F10000199C840C007002801D0FFE7F3E7FFE789
:104F200004B080BD0000000080B584B00390029101
:104F30000398800E0190039840F6C071C0F24001C2
:104F400061F31F200068039AC2F34C33C2F3042CB0
:104F500003FA0CF39843DDF808E00EFA0CFC03EAC0
:104F60000C03184361F31F2210600198202801D818
:104F7000FFE70BE04DF65150C8F201004DF66F51BE
:104F8000C8F2010140F20B420CF032FE01982028D9
:104F90000ED0FFE7FFE74CF24800C4F20F000068B4
:104FA0000199C840C007002801D0FFE7F3E7FFE7F9
:104FB00004B080BD0000000080B584B00390029171
:104FC0000398800E0190039840F6C071C0F2400132
:104FD00061F31F200068039AC2F34C33C2F3042C20
:104FE00003FA0CF39843DDF808E00EFA0CFC03EA30
:104FF0000C03184361F31F2210600198202801D888
:10500000FFE70BE04DF65150C8F201004DF66F512D
:10501000C8F2010140F20B420CF0EAFD0198202891
:105020000ED0FFE7FFE74CF24800C4F20F00006823
:105030000199C840C007002801D0FFE7F3E7FFE768
:1050400004B080BD0000000080B584B003900291E0
:105050000398800E0190039840F6C071C0F24001A1
:1050600061F31F200068039AC2F34C33C2F3042C8F
:1050700003FA0CF39843DDF808E00EFA0CFC03EA9F
:105080000C03184361F31F2210600198202801D8F7
:10509000FFE70BE04DF65150C8F201004DF66F519D
:1050A000C8F2010140F2E6320CF0A2FD019820287E
:1050B0000ED0FFE7FFE74CF24800C4F20F00006893
:1050C0000199C840C007002801D0FFE7F3E7FFE7D8
:1050D00004B080BD0000000080B584B00390029150
:1050E0000398800E0190039840F6C071C0F2400111
:1050F00061F31F200068039AC2F34C33C2F3042CFF
:1051000003FA0CF39843DDF808E00EFA0CFC03EA0E
:105110000C03184361F31F2210600198202801D866
:10512000FFE70BE04DF65150C8F201004DF66F510C
:10513000C8F2010140F2E6320CF05AFD0198202835
:105140000ED0FFE7FFE74CF24800C4F20F00006802
:105150000199C840C007002801D0FFE7F3E7FFE747
:1051600004B080BD0000000080B584B003900291BF
:105170000398800E0190039840F6C071C0F2400180
:1051800061F31F200068039AC2F34C33C2F3042C6E
:1051900003FA0CF39843DDF808E00EFA0CFC03EA7E
:1051A0000C03184361F31F2210600198202801D8D6
:1051B000FFE70BE04DF65150C8F201004DF66F517C
:1051C000C8F2010140F2E6320CF012FD01982028ED
:1051D0000ED0FFE7FFE74CF24800C4F20F00006872
:1051E0000199C840C007002801D0FFE7F3E7FFE7B7
:1051F00004B080BD0000000083B01346029001910E
:105200008DF803209DF80300C00700280AD0FFE7AF
:105210000298BDF806106FF31F3108444FF4803137
:10522000416009E00298BDF806106FF31F31084491
:105230004FF480318160FFE703B070470000000049
:1052400081B00090009846F2A421C2F200010860EB
:1052500001B070470000000081B00090009846F255
:10526000AC21C2F20001086001B0704700000000EC
:1052700081B001468DF803009DF80300002807D196
:10528000FFE748F27420C4F20D001021016006E02F
:1052900048F27820C4F20D0010210160FFE701B050
:1052A000704700000000000080B582B046F66470D0
:1052B000C2F20000006846F66071C2F2000109689F
:1052C0004CF20002C4F22B0201901046019A904762
:1052D00002B080BD0000000080B5FFF7E5FFBFF31E
:1052E0004F8F80BD0000000081B0009000980178D1
:1052F000407841EA002000B201B070470000000091
:1053000080B59EB01C901B911A92199300200790B3
:105310001C99069106994A1C069208701B9890EDFC
:10532000000B8DED0C0B9DED0C0BB5EE400BF1EE73
:1053300010FA09D1FFE70698302101700798013073
:10534000079007981D9017E19DED0C0B08A81AF027
:1053500093F88DED0A0B00201590FFE71598199929
:1053600088420FD2FFE79DED1A0AB8EEC01B9DEDF3
:105370000A2B22EE011B8DED0A1BFFE71598013069
:105380001590EBE79DED0C0BB5EE400BF1EE10FA2E
:1053900028DBFFE79DED0A0BB6EE001B30EE010B9C
:1053A0008DED120B9DED120B9DED192AB8EE421BEF
:1053B000B2EE043B8DED040BB0EE430B1AF0BCF8DB
:1053C0009DED041BB4EE401BF1EE10FA09DBFFE784
:1053D0009DED080BB7EE001B30EE010B8DED080BB9
:1053E000FFE729E09DED0A0BBEEE001B30EE010B3E
:1053F0008DED120B9DED120B9DED192AB8EE421B9F
:10540000B2EE043B8DED020BB0EE430B1AF094F8B4
:10541000B1EE400B9DED021BB4EE401BF1EE10FA15
:1054200009DCFFE79DED080BBFEE001B30EE010B22
:105430008DED080BFFE7FFE700201590FFE71598BB
:10544000199988424ED2FFE79DED120B9DED1A1A75
:10545000B8EEC12B80EE020B8DED0E0B9DED120B05
:105460009DED0E2B51EC120B8DED000BFDF7FBFAB1
:105470001A9AD317A0FB02CE00FB03E001FB020146
:105480006046FDF7DCFA41EC100B9DED002B32EE8F
:10549000400B8DED100B9DED100BBDEEC01B8DED87
:1054A000161A1698B0F1FF3F07DCFFE71698149024
:1054B0001498C0433130169003E01698303016909F
:1054C000FFE79DED0E0B8DED120B169806994A1C09
:1054D00006920870079801300790FFE71598013091
:1054E0001590ACE70698411C06912E210170079893
:1054F000013007909DED080BBDEEC01B8DED181A15
:105500001898002809D1FFE70698411C0691302120
:1055100001700798013007902BE0FFE718980028EA
:1055200026D0FFE718981A9990FBF1F01790189879
:1055300017991A9A01FB120016901698B0F1FF3FC6
:1055400007DCFFE7169814901498C043313016908A
:1055500003E0169830301690FFE7179818901698C9
:1055600006994A1C06920870079801300790D5E703
:10557000FFE707981D90FFE71D981EB080BD000053
:10558000B0B594B0DDF860C01290119110920F93F5
:105590008DF83BC0002001901299009100994A1C9F
:1055A000009208701098002860D0FFE711980168F9
:1055B00040680D900C910C980D990843002809D172
:1055C000FFE70098302101700198013001900198A7
:1055D0001390B7E0FFE70C980D990843002844D0DA
:1055E000FFE70C980D990F9AD317FDF7CAF90B91A5
:1055F0000A900C980D990A9A0B9BDDF83CC04FEA73
:10560000EC7EA2FB0C4502FB0E5203FB0C22001B9E
:1056100061EB0201089009910998B0F1FF3F0EDC9F
:10562000FFE7089809990391029002980399C943EA
:10563000C043313041F100010890099107E008981A
:105640000999303041F1000108900991FFE70A986B
:105650000B990D910C909DF8200000994A1C009226
:105660000870019801300190B5E768E01198016871
:10567000406807900691069807990843002809D1C9
:10568000FFE70098302101700198013001900198E6
:10569000139057E0FFE706980799084300284DD07C
:1056A000FFE7069807990F9AD317FDF739F9059187
:1056B000049006980799049A059BDDF83CC04FEAD0
:1056C000EC7EA2FB0C4502FB0E5203FB0C22001BDE
:1056D00061EB02010290039102980399D0F1090055
:1056E0004FF0000272EB010108D3FFE70298039923
:1056F000303041F100010290039111E002980399CA
:105700009DF83B20D2076123002A18BF4123C0180F
:1057100041F100010A3861F1000102900391FFE7B5
:1057200004980599079106909DF8080000994A1C75
:1057300000920870019801300190ACE7FFE70198F2
:105740001390FFE7139814B0B0BD000000000000F4
:1057500080B548F20000C4F20E00002100F014FCF5
:105760004007002808D5FFE746F60840C2F20000CF
:10577000006800F045FCFFE748F20000C4F20E00AC
:10578000102100F001FC4007002808D5FFE746F68D
:105790000840C2F20000006C00F032FCFFE780BD60
:1057A00080B548F20000C4F20E000A2100F0ECFBC4
:1057B0004007002808D5FFE746F60840C2F200007F
:1057C000806A00F01DFCFFE748F20000C4F20E0002
:1057D0001A2100F0D9FB4007002808D5FFE746F65C
:1057E0000840C2F20000806E00F00AFCFFE780BDB6
:1057F00080B548F20000C4F20E000B2100F0C4FB9B
:105800004007002808D5FFE746F60840C2F200002E
:10581000C06A00F0F5FBFFE748F20000C4F20E009A
:105820001B2100F0B1FB4007002808D5FFE746F632
:105830000840C2F20000C06E00F0E2FBFFE780BD4E
:1058400080B548F20000C4F20E000C2100F09CFB71
:105850004007002808D5FFE746F60840C2F20000DE
:10586000006B00F0CDFBFFE748F20000C4F20E0031
:105870001C2100F089FB4007002808D5FFE746F609
:105880000840C2F20000006F00F0BAFBFFE780BDE5
:1058900080B548F20000C4F20E000D2100F074FB48
:1058A0004007002808D5FFE746F60840C2F200008E
:1058B000406B00F0A5FBFFE748F20000C4F20E00C9
:1058C0001D2100F061FB4007002808D5FFE746F6E0
:1058D0000840C2F20000406F00F092FBFFE780BD7D
:1058E00080B548F20000C4F20E000E2100F04CFB1F
:1058F0004007002808D5FFE746F60840C2F200003E
:10590000806B00F07DFBFFE748F20000C4F20E0060
:105910001E2100F039FB4007002808D5FFE746F6B6
:105920000840C2F20000806F00F06AFBFFE780BD14
:1059300080B548F20000C4F20E000F2100F024FBF5
:105940004007002808D5FFE746F60840C2F20000ED
:10595000C06B00F055FBFFE748F20000C4F20E00F8
:105960001F2100F011FB4007002808D5FFE746F68D
:105970000840C2F20000C06F00F042FBFFE780BDAC
:1059800080B548F20000C4F20E00012100F0FCFADC
:105990004007002808D5FFE746F60840C2F200009D
:1059A000406800F02DFBFFE748F20000C4F20E0053
:1059B000112100F0E9FA4007002808D5FFE746F674
:1059C0000840C2F20000406C00F01AFBFFE780BD07
:1059D00080B548F20000C4F20E00022100F0D4FAB3
:1059E0004007002808D5FFE746F60840C2F200004D
:1059F000806800F005FBFFE748F20000C4F20E00EB
:105A0000122100F0C1FA4007002808D5FFE746F64A
:105A10000840C2F20000806C00F0F2FAFFE780BD9F
:105A200080B548F20000C4F20E00032100F0ACFA89
:105A30004007002808D5FFE746F60840C2F20000FC
:105A4000C06800F0DDFAFFE748F20000C4F20E0083
:105A5000132100F099FA4007002808D5FFE746F621
:105A60000840C2F20000C06C00F0CAFAFFE780BD37
:105A700080B548F20000C4F20E00042100F084FA60
:105A80004007002808D5FFE746F60840C2F20000AC
:105A9000006900F0B5FAFFE748F20000C4F20E001A
:105AA000142100F071FA4007002808D5FFE746F6F8
:105AB0000840C2F20000006D00F0A2FAFFE780BDCE
:105AC00080B548F20000C4F20E00052100F05CFA37
:105AD0004007002808D5FFE746F60840C2F200005C
:105AE000406900F08DFAFFE748F20000C4F20E00B2
:105AF000152100F049FA4007002808D5FFE746F6CF
:105B00000840C2F20000406D00F07AFAFFE780BD65
:105B100080B548F20000C4F20E00062100F034FA0D
:105B20004007002808D5FFE746F60840C2F200000B
:105B3000806900F065FAFFE748F20000C4F20E0049
:105B4000162100F021FA4007002808D5FFE746F6A5
:105B50000840C2F20000806D00F052FAFFE780BDFD
:105B600080B548F20000C4F20E00072100F00CFAE4
:105B70004007002808D5FFE746F60840C2F20000BB
:105B8000C06900F03DFAFFE748F20000C4F20E00E1
:105B9000172100F0F9F94007002808D5FFE746F67D
:105BA0000840C2F20000C06D00F02AFAFFE780BD95
:105BB00080B548F20000C4F20E00082100F0E4F9BC
:105BC0004007002808D5FFE746F60840C2F200006B
:105BD000006A00F015FAFFE748F20000C4F20E0078
:105BE000182100F0D1F94007002808D5FFE746F654
:105BF0000840C2F20000006E00F002FAFFE780BD2C
:105C000080B548F20000C4F20E00092100F0BCF992
:105C10004007002808D5FFE746F60840C2F200001A
:105C2000406A00F0EDF9FFE748F20000C4F20E0010
:105C3000192100F0A9F94007002808D5FFE746F62A
:105C40000840C2F20000406E00F0DAF9FFE780BDC4
:105C500080B592B0944686468DF843000F918DF83A
:105C60003B200D9343F2215008900D9804900F981B
:105C7000059000208DF818008DF819009DF843005C
:105C80008DF81A0001208DF81B008DF81C009DF87E
:105C90003B008DF82C009DF83B00012803D1FFE765
:105CA00004A80C901AE09DF83B00022803D1FFE7FE
:105CB000089811907CE09DF83B00032803D1FFE792
:105CC0000898119074E09DF83B00042803D1FFE789
:105CD000089811906CE00898119069E047F26810FC
:105CE000C2F2000000211C220390FCF798FE0399E9
:105CF00009610A6909A90290104605F0E9FB0890BC
:105D00000898002801D1FFE70BE04EF6E110C8F239
:105D100001004EF68211C8F201014FF43D720BF002
:105D200067FF47F26810C2F2000001691430019069
:105D30000846019905F068FC08900898002801D1F0
:105D4000FFE70BE04EF6E110C8F201004EF68211BB
:105D5000C8F2010140F2FE220BF04AFF47F2681040
:105D6000C2F200000169183000900846009905F061
:105D7000F7FB08900898002801D1FFE70BE04EF6EA
:105D8000E110C8F201004EF68211C8F2010140F2A2
:105D900009320BF02DFF47F26810C2F200000069D3
:105DA00046F2A821C2F20001086000201190FFE72E
:105DB000119812B080BD000080B586B09446059061
:105DC00004918DF80F20029300200190FFE70198C5
:105DD000029988421EDAFFE70498006801308028A3
:105DE00009D3FFE705980499096800F049F8049978
:105DF00000220A60FFE79DF80F000599049A1268D7
:105E000088540498016801310160FFE7019801306E
:105E10000190DCE706B080BD83B080B5A7B02B93BE
:105E20002A922991259000202390229002A8802177
:105E3000FCF7F3FD46F2A820C2F20000006800283B
:105E400003D1FFE70020269014E029A8249025988C
:105E5000249943F69903C8F2000302AA019205F0BF
:105E600003FE23902399019800F00AF822902298CB
:105E70002690FFE7269827B0BDE8804003B0704722
:105E800080B586B00490039143F2215002900498AB
:105E9000002801D0FFE70BE04EF6D610C8F2010053
:105EA0004EF68211C8F2010140F2E9120BF0A0FE99
:105EB0000398002801D0FFE70BE04EF6CC10C8F2A3
:105EC00001004EF68211C8F201014FF4F5720BF099
:105ED0008FFE46F2A820C2F200000068002803D11D
:105EE000FFE70020059017E00499039A47F2681035
:105EF000C2F20000143005F04BFC0290029800281A
:105F000003D1FFE70398019003E04FF0FF300190C9
:105F1000FFE701980590FFE7059806B080BD0000F7
:105F2000FFE7FEE70000000083B0EFF31080019070
:105F300001980090EFF3108072B60290009803B0C1
:105F4000704700000000000083B0EFF31080019064
:105F500001980090EFF3108072B60290009803B0A1
:105F6000704700000000000083B0EFF31080019044
:105F700001980090EFF3108072B60290009803B081
:105F8000704700000000000084B003900291029866
:105F90001F2801D8FFE70BE04EF27F00C8F2010096
:105FA0004EF2C201C8F2010140F2C5220BF020FE00
:105FB000002001900398029900EB411041F21C016E
:105FC000405AC0B2019941EAD01001900398C06ACA
:105FD0000299C84000F00100019941EA4000019097
:105FE0000398406A0299C84000F00100019941EA13
:105FF00080000190019804B070470000000000008C
:1060000080B58AB009900998002801D0FFE70BE01D
:106010004EF2B300C8F201004EF2C201C8F2010113
:1060200040F221520BF0E4FD0998017C8068C177B1
:1060300009988168007C01EB401041F21C01405A34
:10604000C0B2C0098DF823000998C068002817D194
:10605000FFE709980068002811D0FFE70998016858
:1060600042689DF8233003F001034FF0000C0391C8
:1060700011461A466346DDF80CC0E047FFE788E0AA
:1060800009988168007C01EB401041F218014058EA
:1060900007900998C0680799081A0790079840095F
:1060A00006909DF82300C007002804D0FFE706985B
:1060B0008DF8130011E00698002805D0FFE79DF841
:1060C00018000138029004E00998007D0138029020
:1060D000FFE702988DF81300FFE79DF81300099978
:1060E000497C884218D1FFE70998C07C8DF81200DE
:1060F0000998007D8DF811009DF912009DF911108D
:10610000884205D1FFE7099890F91300059002E055
:1061100000200590FFE713E09DF81300099991F91D
:106120001110401A05900598B0F1FF3F07DCFFE71A
:10613000099890F91400059908440590FFE7FFE7D6
:106140009DF813000999487405980999CA7C101A9A
:10615000C8740998006800280FD0FFE70998016803
:106160004268059B9DF823C00CF0010C019111467B
:106170006246DDF804C0E047FFE79DF82300C00752
:10618000002805D0FFE70998017C80680177FFE7C8
:10619000FFE70AB080BD000080B544F20000C4F201
:1061A0002D0000F019F880BD80B582B047F28C1048
:1061B000C2F20000006846F68841C2F20001096898
:1061C00048F20002C4F22D0201901046019A904755
:1061D00002B080BD0000000080B588B0079007982D
:1061E00040680690079800F06FF805909DF81B0036
:1061F00010F00C0F13D0FFE747F29010C2F200002E
:1062000000680799059A46F68843C2F2000353F8DE
:106210002220049008461146049A9047FFE79DF813
:106220001B008007002813D0FFE747F28810C2F256
:10623000000000680799059A46F68843C2F20003F9
:1062400053F82220039008461146039A9047FFE72F
:10625000069810F4C03F13D0FFE747F28C10C2F24B
:10626000000000680799059A46F68843C2F20003C9
:1062700053F82220029008461146029A9047FFE701
:10628000BDF81A0046F27C01084213D0FFE747F23E
:106290008410C2F2000000680799059A46F6884308
:1062A000C2F2000353F82220019008461146019AD9
:1062B0009047FFE708B080BD80B548F20000C4F207
:1062C0002D00FFF789FF80BD82B001900020009073
:1062D000FFE70098022811D8FFE700984DF6184113
:1062E000C8F2010151F820000199884201D1FFE76D
:1062F00004E0FFE7009801300090EAE700980228E8
:1063000001D8FFE70BE04EF2F200C8F201004EF2B6
:106310001511C8F2010140F243120BF069FC00981C
:1063200002B070470000000080B503202A212D2212
:1063300017F08EFD01200C210F2217F089FD80BD82
:1063400082B0009000980190019880F3108802B00C
:10635000704700000000000082B00090009801909B
:10636000019880F3108802B0704700000000000020
:1063700082B0009000980190019880F3108802B0DC
:10638000704700000000000080B582B00146ADF803
:106390000200BDF902008030002803D1FFE7012090
:1063A000019006E0BDF902000BF042FB00200190D5
:1063B000FFE7019802B080BD80B582B00146ADF81C
:1063C0000200BDF902008030002803D1FFE7012060
:1063D000019006E0BDF902000BF046FB00200190A1
:1063E000FFE7019802B080BD80B582B00146ADF8EC
:1063F0000200BDF902008030002803D1FFE7012030
:10640000019006E0BDF902000BF04AFB002001906C
:10641000FFE7019802B080BD80B500F049F880BD6B
:1064200080B500F045F880BD80B500F041F880BD32
:1064300080B584B0039002919DF80800C007002841
:106440000FD0FFE70398016802694069012303FA4E
:1064500000F00138904001900846019900F020F8C2
:10646000FFE79DF80800800700280FD5FFE7039895
:10647000016802694069012303FA00F00138904085
:1064800000900846009900F003F8FFE704B080BDD3
:1064900082B00190009100980199486102B0704764
:1064A00082B00190009100980199086102B0704794
:1064B00080B584B000208DF80F00FFE79DF80F0035
:1064C00001282EDCFFE79DF80F0047F2A411C2F26D
:1064D000000151F8200000281CD0FFE79DF80F00B4
:1064E00047F2AC11C2F2000151F8201047F2B41289
:1064F000C2F2000252F8202047F2A413C2F20003B5
:1065000053F8200002901046029A01911146019B17
:106510009847FFE7FFE79DF80F0001308DF80F0067
:10652000CCE704B080BD000080B540F26810C2F234
:106530000000806800F0ECF8C009C00700280CD00B
:10654000FFE746F2CC10C2F200000078012803D128
:10655000FFE716F07DFAFFE7FFE740F26810C2F2AE
:106560000000806800F0D4F8C009C00700280CD0F3
:10657000FFE746F2CC10C2F200000078022803D1F7
:10658000FFE717F0E1FCFFE7FFE780BD0000000038
:1065900080B540F26810C2F20000806800F0B8F8E0
:1065A000000CC00700280AD0FFE740F26810C2F2D2
:1065B000000080684FF4803100F062F8FFE780BD92
:1065C00080B582B040F26810C2F20000C06800F0EE
:1065D0009FF8C00BC007002836D0FFE740F26810D4
:1065E000C2F20000C0684FF4004100F049F86F208B
:1065F0000BF06EFC012804D1FFE7032016F044FBEA
:1066000021E00320019016F0CBFA46F25411C2F2B9
:1066100000010860086848F21F51C5F2EB1150FBF9
:1066200001F0810901EBD07046F25011C2F2000175
:10663000088046F25810C2F2000001210170019852
:1066400016F092FAFFE7FFE702B080BD00000000FD
:1066500080B582B0019000910198009900F078F91E
:1066600002B080BD0000000080B582B001900091B2
:106670000198009900F074F902B080BD000000009C
:1066800080B582B0019000910198009900F070F9F6
:1066900002B080BD0000000080B582B00190009182
:1066A0000198009900F048F902B080BD0000000098
:1066B00082B0019000200090FFE70098092811D8CF
:1066C000FFE700984DF62441C8F2010151F820007F
:1066D0000199884201D1FFE704E0FFE7009801300B
:1066E0000090EAE70098092801D8FFE70AE04EF297
:1066F000C910C8F201004EF2F611C8F201013922A8
:106700000BF076FA009802B070470000000000001D
:1067100080B582B00190019800F032F902B080BDDE
:1067200080B584B00390029101920398FFF7C0FFF7
:1067300000900098052815D8FFE700984DF64C41C9
:10674000C8F2010131F91000013000280AD0FFE73A
:1067500000984DF64C41C8F2010131F91000FDF7E7
:10676000DBFCFFE70298012101FA00F003994A6976
:1067700022EA000048610198007800280AD1FFE76A
:106780000298012101FA00F003994A6822EA000008
:1067900048600EE003980299019A527800F09CF844
:1067A0000298012101FA00F003994A6810434860F9
:1067B000FFE703980299019A927800F00DF904B06E
:1067C00080BD00000000000082B0019000910098A0
:1067D0001F2801D8FFE70AE04EF2EC10C8F20100D2
:1067E0004EF28771C8F20101CD220BF001FA019837
:1067F00080680099C84000F0010002B070470000B6
:1068000086B01346059004918DF80F2004980190EE
:106810000498012101FA00F00599CA6922EA0000F2
:10682000C86104980F2804D8FFE705980C3002903F
:1068300006E0059810300290019810380190FFE7AB
:106840009DF80F0001380146042800913FD80099B7
:10685000DFE801F0030E1C2A3400019840000321F8
:1068600001FA00F002990A6822EA000008602FE0AD
:10687000029800680199490003228A40904301224E
:1068800002FA01F108430299086021E002980068C9
:106890000199490003228A409043022202FA01F141
:1068A00008430299086013E001984000032101FAAF
:1068B00000F002990A681043086009E00498012179
:1068C00001FA00F00599CA691043C86100E0FFE7CA
:1068D00006B070470000000084B013460390029198
:1068E0008DF8072002981F2801D8FFE70AE04EF232
:1068F000EC10C8F201004EF2F611C8F2010171224B
:106900000BF076F99DF8070000280AD1FFE70298FE
:10691000012101FA00F003990A6822EA00000860E8
:1069200008E00298012101FA00F003990A68104377
:106930000860FFE704B0704782B0019000910098B2
:106940000199C1F8880002B0704700000000000003
:1069500082B00190009100980199886102B070475F
:1069600082B00190009100980199886102B070474F
:1069700082B00190009100980199886102B070473F
:1069800081B000900098806901B07047000000005D
:1069900082B00190009100980199C1F8840002B082
:1069A000704700000000000082B001900091009844
:1069B0000199C1F88C0002B070470000000000008F
:1069C00080B582B00190009101980099FFF7FCFE1C
:1069D00002B080BD0000000080B584B01346039073
:1069E00002918DF80720039802999DF807200093E3
:1069F000FFF706FF04B080BD80B582B00190009122
:106A000001980099FFF7C4FF02B080BD00000000AC
:106A100082B00A4601908DF803109DF80300019999
:106A2000886002B07047000080B582B00190019884
:106A300000210160019800F03BF84DF66441C8F276
:106A4000010131F91000FDF707FB02B080BD000025
:106A500080B582B001900198002801D0FFE70AE0DC
:106A60004DF6FB70C8F201004EF26E21C8F2010132
:106A700072220BF0BDF80198002110220091FBF763
:106A8000CEFF019901220A7001994A6001998A7228
:106A900001994A720199009BCB7201990B7301997C
:106AA0000B7201994A7302B080BD00000000000023
:106AB00082B0019000200090FFE70098022811D8D2
:106AC000FFE700984DF65841C8F2010151F8200047
:106AD0000199884201D1FFE704E0FFE70098013007
:106AE0000090EAE70098022801D8FFE70AE04EF29A
:106AF0002620C8F201004EF26E21C8F201012F22B9
:106B00000BF076F8009802B070470000000000001B
:106B100082B00A4601908DF80310019880689DF8B4
:106B20000310084002B0704780B582B00190009118
:106B30000098002801D0FFE70AE04EF29D20C8F23D
:106B400001004EF26E21C8F201013C220BF050F818
:106B50000198FFF7ADFF4DF66441C8F2010131F92C
:106B60001000FDF7E9FA019800210160019800F09A
:106B7000B7F80098017A427A837A90F80BC002F055
:106B80000102002A18BF082261F3492263F345126B
:106B90006CF30412017B61F38202407B02F102017B
:106BA0004FEAC070002818BF0A4601980260019899
:106BB0000099097800F048F801980099496800F0B8
:106BC00003F802B080BD000082B0019000910098EF
:106BD00001380021B1EB103F01D1FFE70AE04EF28E
:106BE0004820C8F201004EF2B021C8F20101DB22B8
:106BF0000AF0FEFF019840680099013961F30B002B
:106C00000199486002B0704782B0019000910098ED
:106C100001380021B1EB103F01D1FFE70AE04EF24D
:106C20004820C8F201004EF6F801C8F20101DB224B
:106C30000AF0DEFF019840680099013961F30B000A
:106C40000199486002B0704782B00A4601908DF801
:106C500003109DF8030005280FD1FFE70198006895
:106C600020F4B8609DF8031001F0070140EA81109C
:106C700000F58060019908600CE00198006820F43C
:106C8000B8609DF8031001F0070140EA81100199F6
:106C90000860FFE702B0704784B00B4603908DF8A0
:106CA0000B1001929DF80B00022801DCFFE70BE0BE
:106CB0004EF6D100C8F201004EF6F801C8F201010B
:106CC0004FF4C6720AF094FF9DF80B000199039AE5
:106CD00002EB8000016104B070470000000000007A
:106CE00081B000900098016841F400410160FFE725
:106CF000009800680004002801D5FFE7F8E701B01C
:106D0000704700000000000081B00090009801680A
:106D100041F00101016001B0704700000000000077
:106D200081B000900098016821F00101016001B07C
:106D3000704700000000000080B5022004210622F8
:106D400041F68023C0F206030BF0A6F980BD0000D7
:106D500080B58AB068461821016040F6A800C2F2EA
:106D600000000221502234230990084611461A4699
:106D7000099B0BF061FB46F2C811C2F200010860EA
:106D800009981230FEF7B0FA00EE100AB8EEC00A09
:106D9000B7EEC01A9FED482B81EE021B9FED483BDA
:106DA00021EE031B46F23810C2F2000080ED001BFA
:106DB000099814308DED062B8DED043BFEF794FA07
:106DC00000EE100AB8EEC00AB7EEC01A9DED062B11
:106DD00081EE021B9DED043B21EE031B47F2902048
:106DE000C2F2000080ED001B09981630FEF77CFA15
:106DF00000EE100AB8EEC00AB7EEC01A9DED062BE1
:106E000081EE021B9DED043B21EE031B46F6004084
:106E1000C2F2000080ED001B0998FEF765FA00EE53
:106E2000100AB8EEC00AB7EEC01A9DED062B81EE2F
:106E3000021BB3EE003B21EE031B46F2B010C2F280
:106E4000000080ED001B099802308DED023BFEF73B
:106E50004BFA00EE100AB8EEC00AB7EEC01A9DED6C
:106E6000062B81EE021B9DED023B21EE031B46F239
:106E7000B810C2F2000080ED001B09980430FEF744
:106E800033FA00EE100AB8EEC00AB7EEC01A9DED54
:106E9000062B81EE021B9DED023B21EE031B46F209
:106EA000C010C2F2000080ED001B18F091FA0AB089
:106EB00080BD00BF00BF00BF000000000000E04038
:106EC000000000000080664082B00090009800281A
:106ED00004D1FFE70020ADF8060004E042F6AF70F1
:106EE000ADF80600FFE7BDF8060002B070470000ED
:106EF00080B58CB00A9009910A98002801D0FFE76C
:106F00000AE04EF2AE40C8F201004DF6E261C8F26E
:106F10000101E7220AF06CFE0998002801D0FFE782
:106F20000AE04EF20300C8F201004DF6E261C8F239
:106F30000101E8220AF05CFE0998007B082801D8CC
:106F4000FFE70AE04DF67360C8F201004DF6E2611A
:106F5000C8F20101E9220AF04BFE0998007B4DF6C8
:106F60006C31C8F2010151F82000002801D0FFE780
:106F70000AE04DF6BC60C8F201004DF6E261C8F2CD
:106F80000101EA220AF034FE03A801F0C9FF0998C2
:106F9000406803900998007A012804D1FFE7022095
:106FA0008DF810000DE00998007A022804D1FFE75F
:106FB00003208DF8100003E000208DF81000FFE79B
:106FC000FFE70998407A012804D1FFE701208DF8F6
:106FD000130003E000208DF81300FFE70998807A82
:106FE000002818BF01208DF81D000998C07A0028DC
:106FF00018BF01208DF81C000998017B4DF66C32FA
:10700000C8F2010252F82110026803A80190084654
:10701000019902F025F802900298002806D0FFE7B7
:107020000298FFF751FFADF82E0009E00A9808908A
:107030000998007B089908700020ADF82E00FFE742
:10704000BDF82E000CB080BD80B584B003900291D5
:1070500001920398002801D0FFE70BE04EF2AE400A
:10706000C8F201004DF6E261C8F201014FF4AD72C1
:107070000AF0BEFD0298002801D0FFE70BE04EF2B7
:107080006F40C8F201004DF6E261C8F2010140F222
:107090005B120AF0ADFD0198002801D0FFE70BE07C
:1070A0004DF60D60C8F201004DF6E261C8F2010133
:1070B0004FF4AE720AF09CFD03980090009800789F
:1070C0004DF66C31C8F2010151F820000299019A85
:1070D00002F03EFD002004B080BD00000000000072
:1070E000FFE7FEE70000000080B584B0DDF81CC0BB
:1070F000DDF818E0039002910192009306980028B1
:1071000004D0FFE7079806990860FFE704B080BD48
:1071100080B584B0DDF81CC0DDF818E00390029162
:1071200001920093029800F00F00079901F001010D
:1071300040EA0110039908600198002804D0FFE795
:10714000009801990860FFE704B080BD00000000CE
:1071500080B50020C4F23F00012100F041F880BD5D
:1071600080B544F20000C4F23F00022100F038F87C
:1071700080BD00000000000080B548F20000C4F2AD
:107180003F00032100F02CF880BD0000000000004B
:1071900080B54CF20000C4F23F00042100F020F85A
:1071A00080BD00000000000080B584B00390002086
:1071B0000290039800F0A0F901909DF80700800765
:1071C00000280AD5FFE79DF80700C007002804D172
:1071D000FFE74FF461700290FFE7029804B080BDB2
:1071E00080B584B00390029103980069C00700281D
:1071F0001BD0FFE747F2D010C2F200000068002861
:1072000013D0FFE747F2D010C2F2000000680399E4
:10721000029A47F2BC13C2F2000353F822200190F5
:1072200008461146019A9047FFE70398D0F81001ED
:10723000C00700281BD0FFE747F2E810C2F20000A9
:107240000068002813D0FFE747F2E810C2F2000000
:1072500000680399029A47F2D413C2F2000353F86C
:107260002220009008461146009A9047FFE704B09C
:1072700080BD00000000000088B0079006910592D4
:1072800004930798002801D0FFE70AE04EF211307E
:10729000C8F201004EF22531C8F20101B8220AF00D
:1072A000A7FC0498002801D0FFE70AE04EF2023064
:1072B000C8F201004EF22531C8F20101B9220AF0EC
:1072C00097FC04980799B1FBF0F044F6D351C1F252
:1072D0006201A0FB0101890944F24022C0F20F02C1
:1072E000B2FBF1F1039100210291FFE70298013016
:1072F00003994843069900228842019209D2FFE788
:107300000298013005990022884238BF012201927B
:10731000FFE70198C007002804D0FFE7029801307A
:107320000290E3E7029800280BD1FFE70398069943
:1073300001EB8101B0EB410F03D8FFE70120029080
:10734000FFE7029808B0704782B0019000200090DB
:10735000FFE70098042811D8FFE700984DF64C315C
:10736000C8F2010151F820000199884201D1FFE7DC
:1073700004E0FFE7009801300090EAE70098042855
:1073800001D8FFE70AE04EF2DF20C8F201004EF21A
:107390002531C8F20101A8220AF02AFC009802B0A7
:1073A000704700000000000080B584B00390029197
:1073B00000200190029800F470500290029800287A
:1073C00036D0FFE79DF809008006002804D5FFE7C6
:1073D00040F28A30019021E09DF809000007002862
:1073E00004D5FFE740F28930019016E09DF80900CE
:1073F0004007002804D5FFE740F2863001900BE0FB
:107400009DF80900C006002804D5FFE740F2873048
:10741000019000E0FFE7FFE7FFE7FFE7039802992D
:1074200000F00AF80398016941F44071016100E03D
:10743000FFE7019804B080BD82B0019000910098F0
:107440000199486102B0704782B00A4601908DF8F8
:107450000310019800699DF8031061F30000019981
:10746000086102B07047000080B582B001900198B9
